{
  "_format": "hh-sol-artifact-1",
  "contractName": "CertificateRegistry",
  "sourceName": "src/contracts/CertificateRegistry.sol",
  "abi": [
    {
      "anonymous": false,
      "inputs": [
        {
          "indexed": true,
          "internalType": "address",
          "name": "issuer",
          "type": "address"
        },
        {
          "indexed": true,
          "internalType": "address",
          "name": "recipient",
          "type": "address"
        },
        {
          "indexed": false,
          "internalType": "bytes32",
          "name": "certId",
          "type": "bytes32"
        },
        {
          "indexed": false,
          "internalType": "string",
          "name": "name",
          "type": "string"
        }
      ],
      "name": "CertificateIssued",
      "type": "event"
    },
    {
      "inputs": [
        {
          "internalType": "bytes32",
          "name": "",
          "type": "bytes32"
        }
      ],
      "name": "certificates",
      "outputs": [
        {
          "internalType": "string",
          "name": "name",
          "type": "string"
        },
        {
          "internalType": "address",
          "name": "issuer",
          "type": "address"
        },
        {
          "internalType": "address",
          "name": "recipient",
          "type": "address"
        },
        {
          "internalType": "string",
          "name": "ipfsHash",
          "type": "string"
        },
        {
          "internalType": "uint256",
          "name": "issueDate",
          "type": "uint256"
        },
        {
          "internalType": "bool",
          "name": "isValid",
          "type": "bool"
        }
      ],
      "stateMutability": "view",
      "type": "function"
    },
    {
      "inputs": [
        {
          "internalType": "string",
          "name": "name",
          "type": "string"
        },
        {
          "internalType": "address",
          "name": "recipient",
          "type": "address"
        },
        {
          "internalType": "string",
          "name": "ipfsHash",
          "type": "string"
        }
      ],
      "name": "issueCertificate",
      "outputs": [
        {
          "internalType": "bytes32",
          "name": "",
          "type": "bytes32"
        }
      ],
      "stateMutability": "nonpayable",
      "type": "function"
    },
    {
      "inputs": [
        {
          "internalType": "bytes32",
          "name": "certId",
          "type": "bytes32"
        }
      ],
      "name": "verifyCertificate",
      "outputs": [
        {
          "internalType": "bool",
          "name": "",
          "type": "bool"
        }
      ],
      "stateMutability": "view",
      "type": "function"
    }
  ],
  "bytecode": "0x608060405234801561001057600080fd5b50610ce4806100206000396000f3fe608060405234801561001057600080fd5b50600436106100415760003560e01c806371b2157214610046578063742f068814610076578063850c1768146100ab575b600080fd5b610060600480360381019061005b9190610651565b6100db565b60405161006d91906106f5565b60405180910390f35b610090600480360381019061008b919061073c565b6102d4565b6040516100a29695949392919061082b565b60405180910390f35b6100c560048036038101906100c0919061073c565b61046d565b6040516100d2919061089a565b60405180910390f35b600080848484426040516020016100f5949392919061095a565b6040516020818303038152906040528051906020012090506040518060c001604052808681526020013373ffffffffffffffffffffffffffffffffffffffff1681526020018573ffffffffffffffffffffffffffffffffffffffff1681526020018481526020014281526020016001151581525060008083815260200190815260200160002060008201518160000190816101909190610bac565b5060208201518160010160006101000a81548173ffffffffffffffffffffffffffffffffffffffff021916908373ffffffffffffffffffffffffffffffffffffffff16021790555060408201518160020160006101000a81548173ffffffffffffffffffffffffffffffffffffffff021916908373ffffffffffffffffffffffffffffffffffffffff16021790555060608201518160030190816102349190610bac565b506080820151816004015560a08201518160050160006101000a81548160ff0219169083151502179055509050508373ffffffffffffffffffffffffffffffffffffffff163373ffffffffffffffffffffffffffffffffffffffff167f807a9ad597a6353ddf5a783133932d0f19220bc8a634295aef214df64d1b7da783886040516102c1929190610c7e565b60405180910390a3809150509392505050565b60006020528060005260406000206000915090508060000180546102f7906109cf565b80601f0160208091040260200160405190810160405280929190818152602001828054610323906109cf565b80156103705780601f1061034557610100808354040283529160200191610370565b820191906000526020600020905b81548152906001019060200180831161035357829003601f168201915b5050505050908060010160009054906101000a900473ffffffffffffffffffffffffffffffffffffffff16908060020160009054906101000a900473ffffffffffffffffffffffffffffffffffffffff16908060030180546103d1906109cf565b80601f01602080910402602001604051908101604052809291908181526020018280546103fd906109cf565b801561044a5780601f1061041f5761010080835404028352916020019161044a565b820191906000526020600020905b81548152906001019060200180831161042d57829003601f168201915b5050505050908060040154908060050160009054906101000a900460ff16905086565b600080600083815260200190815260200160002060050160009054906101000a900460ff169050919050565b6000604051905090565b600080fd5b600080fd5b600080fd5b600080fd5b6000601f19601f8301169050919050565b7f4e487b7100000000000000000000000000000000000000000000000000000000600052604160045260246000fd5b610500826104b7565b810181811067ffffffffffffffff8211171561051f5761051e6104c8565b5b80604052505050565b6000610532610499565b905061053e82826104f7565b919050565b600067ffffffffffffffff82111561055e5761055d6104c8565b5b610567826104b7565b9050602081019050919050565b82818337600083830152505050565b600061059661059184610543565b610528565b9050828152602081018484840111156105b2576105b16104b2565b5b6105bd848285610574565b509392505050565b600082601f8301126105da576105d96104ad565b5b81356105ea848260208601610583565b91505092915050565b600073ffffffffffffffffffffffffffffffffffffffff82169050919050565b600061061e826105f3565b9050919050565b61062e81610613565b811461063957600080fd5b50565b60008135905061064b81610625565b92915050565b60008060006060848603121561066a576106696104a3565b5b600084013567ffffffffffffffff811115610688576106876104a8565b5b610694868287016105c5565b93505060206106a58682870161063c565b925050604084013567ffffffffffffffff8111156106c6576106c56104a8565b5b6106d2868287016105c5565b9150509250925092565b6000819050919050565b6106ef816106dc565b82525050565b600060208201905061070a60008301846106e6565b92915050565b610719816106dc565b811461072457600080fd5b50565b60008135905061073681610710565b92915050565b600060208284031215610752576107516104a3565b5b600061076084828501610727565b91505092915050565b600081519050919050565b600082825260208201905092915050565b60005b838110156107a3578082015181840152602081019050610788565b60008484015250505050565b60006107ba82610769565b6107c48185610774565b93506107d4818560208601610785565b6107dd816104b7565b840191505092915050565b6107f181610613565b82525050565b6000819050919050565b61080a816107f7565b82525050565b60008115159050919050565b61082581610810565b82525050565b600060c082019050818103600083015261084581896107af565b905061085460208301886107e8565b61086160408301876107e8565b818103606083015261087381866107af565b90506108826080830185610801565b61088f60a083018461081c565b979650505050505050565b60006020820190506108af600083018461081c565b92915050565b600081905092915050565b60006108cb82610769565b6108d581856108b5565b93506108e5818560208601610785565b80840191505092915050565b60008160601b9050919050565b6000610909826108f1565b9050919050565b600061091b826108fe565b9050919050565b61093361092e82610613565b610910565b82525050565b6000819050919050565b61095461094f826107f7565b610939565b82525050565b600061096682876108c0565b91506109728286610922565b60148201915061098282856108c0565b915061098e8284610943565b60208201915081905095945050505050565b7f4e487b7100000000000000000000000000000000000000000000000000000000600052602260045260246000fd5b600060028204905060018216806109e757607f821691505b6020821081036109fa576109f96109a0565b5b50919050565b60008190508160005260206000209050919050565b60006020601f8301049050919050565b600082821b905092915050565b600060088302610a627fffffffffffffffffffffffffffffffffffffffffffffffffffffffffffffffff82610a25565b610a6c8683610a25565b95508019841693508086168417925050509392505050565b6000819050919050565b6000610aa9610aa4610a9f846107f7565b610a84565b6107f7565b9050919050565b6000819050919050565b610ac383610a8e565b610ad7610acf82610ab0565b848454610a32565b825550505050565b600090565b610aec610adf565b610af7818484610aba565b505050565b5b81811015610b1b57610b10600082610ae4565b600181019050610afd565b5050565b601f821115610b6057610b3181610a00565b610b3a84610a15565b81016020851015610b49578190505b610b5d610b5585610a15565b830182610afc565b50505b505050565b600082821c905092915050565b6000610b8360001984600802610b65565b1980831691505092915050565b6000610b9c8383610b72565b9150826002028217905092915050565b610bb582610769565b67ffffffffffffffff811115610bce57610bcd6104c8565b5b610bd882546109cf565b610be3828285610b1f565b600060209050601f831160018114610c165760008415610c04578287015190505b610c0e8582610b90565b865550610c76565b601f198416610c2486610a00565b60005b82811015610c4c57848901518255600182019150602085019450602081019050610c27565b86831015610c695784890151610c65601f891682610b72565b8355505b6001600288020188555050505b505050505050565b6000604082019050610c9360008301856106e6565b8181036020830152610ca581846107af565b9050939250505056fea2646970667358221220ce224279ca23fa8a5fc08874d097bc5d10834fed418f14b4cb5cbacfdadbd21d64736f6c63430008140033",
  "linkReferences": {},
  "deployedLinkReferences": {}
}